:100000000C9408020C9430020C9430020C943002D0
:100010000C9430020C9430020C9430020C94300298
:100020000C9430020C9430020C9430020C94300288
:100030000C9430020C9430020C9430020C94300278
:100040000C9430020C9430020C9430020C94300268
:100050000C9430020C9430020C9430020C94300258
:100060000C9430020C9430020C9430020C94300248
:100070000C9430020C9430020C9430020C94300238
:100080000C9430020C9430020C9430020C94300228
:100090000C94FC0D0C94860E0C94600E0C943002A3
:1000A000556E6B6E6F776E206572726F72004120B5
:1000B0004D49464152452050494343207265737073
:1000C0006F6E6465642077697468204E414B2E0022
:1000D000546865204352435F4120646F6573206E0E
:1000E0006F74206D617463682E00496E76616C696F
:1000F0006420617267756D656E742E00496E74655B
:10010000726E616C206572726F7220696E20746805
:100110006520636F64652E2053686F756C64206E74
:100120006F742068617070656E2E00412062756684
:10013000666572206973206E6F742062696720653E
:100140006E6F7567682E0054696D656F75742069F0
:100150006E20636F6D6D756E69636174696F6E2E6D
:1001600000436F6C6C6973696F6E206465746563BE
:100170007465642E004572726F7220696E20636F21
:100180006D6D756E69636174696F6E2E0053756372
:10019000636573732E00556E6B6E6F776E20747986
:1001A00070650053414B20696E64696361746573C7
:1001B00020554944206973206E6F7420636F6D7001
:1001C0006C6574652E004D494641524520544E5091
:1001D00033585858004D49464152452044455346EE
:1001E000697265004D494641524520506C75730057
:1001F0004D494641524520556C7472616C6967687F
:1002000074206F7220556C7472616C696768742019
:1002100043004D494641524520344B42004D49462A
:1002200041524520314B42004D4946415245204DF7
:10023000696E692C20333230206279746573005006
:1002400049434320636F6D706C69616E74207769F8
:1002500074682049534F2F49454320313830393293
:1002600020284E464329005049434320636F6D7058
:100270006C69616E7420776974682049534F2F4907
:1002800045432031343434332D3400504943432026
:10029000747970653A2000300043617264205341E4
:1002A0004B3A200020002030004361726420554901
:1002B000443A00204164723D3078002056616C75EC
:1002C000653D30780020496E766572746564206102
:1002D0006363657373206269747320646964206E5C
:1002E0006F74206D61746368212000205D20002000
:1002F000002000205B2000200020002030004D491D
:10030000464152455F526561642829206661696CE7
:1003100065643A20005043445F41757468656E74AB
:1003200069636174652829206661696C65643A2097
:10033000002020002000202000202020002020205D
:10034000202020200020202000202000202020002D
:10035000536563746F7220426C6F636B2020203092
:10036000202031202032202033202020342020352E
:1003700020203620203720202038202039203130FE
:1003800020313120203132203133203134203135B9
:1003900020204163636573734269747300200020F9
:1003A000300020200020002020004D4946415245C9
:1003B0005F526561642829206661696C65643A2032
:1003C000005061676520203020203120203220201D
:1003D000330044756D70696E67206D656D6F72795D
:1003E00020636F6E74656E7473206E6F7420696D18
:1003F000706C656D656E74656420666F72207468DC
:100400006174205049434320747970652E00CF0EEB
:1004100011241FBECFEFCDBFDFE3DEBF1AE2A0E0A5
:10042000B8E2ECEBFFE202C005900D92A236B107F4
:10043000D9F72BE2A2E6BAE201C01D92A039B207B9
:10044000E1F712E0C8E0D2E004C02197FE010E946B
:100450009C15C730D107C9F70E94510F0C941E1785
:100460000C94000000006093C4088091C30887FFCB
:10047000FCCF8091C408089500008093C408809147
:10048000C30887FFFCCF8091C4080895FC015489FC
:100490004589252F30E0842F90E0821B930B541761
:1004A00010F0CF96089501970895FC0192898389F1
:1004B000981761F0A389AE0FBF2FB11D59968C918B
:1004C00093899F5F9F73938B90E008958FEF9FEFC9
:1004D0000895FC0192898389981731F08389E80F88
:1004E000F11D818D90E008958FEF9FEF0895FC013D
:1004F00092892389892F90E0805C9F4F821B91090C
:100500008F7399270895CF93DF93EC01E881F981E8
:100510000680F781E02D0995EC85FD8586818F7336
:100520008683EC85FD8585818F7585838B898A8B94
:10053000198ADF91CF910895CF93DF93FC019489BD
:100540008589C485D585981306C08D818F7D8D835F
:10055000DF91CF910895A589AE0FBF2FB11DA75A86
:10056000BF4F2C91858990E001968F739927858BD9
:1005700080E48C83A485B58512962C939489858913
:100580009813E6CFA485B58515968C9115978F7D28
:1005900015968C9387898823D9F2808D80931301D7
:1005A000178AD6CFDC011C96ED91FC910FB607FEA1
:1005B00003C0258125FD04C0248125FD0C949C02E7
:1005C0000895EF92FF920F931F93CF93DF93EC0167
:1005D00081E0898B9C898D8998131CC0AC85BD8571
:1005E00014968C91149785FF15C012966C93AC8568
:1005F000BD8580E414968C93EC85FD8585818F7D87
:10060000858381E090E0DF91CF911F910F91FF9062
:10061000EF9008958091110180FF08C0809113012F
:10062000888F8E898093130181E08F8BF62E0C8941
:1006300010E00F5F1F4F0F731127E02E8D898E1171
:1006400004C0CE010E94D202F9CFEC89EC0FFD2F3D
:10065000F11DE75AFF4FF0820C8BEC85FD858581FB
:100660008062CECF0F931F93CF93DF938C01D0E0A6
:10067000C0E0F801EC0FFD1F6491662341F084E7B0
:100680009AE20E94E102892B11F02196F2CFCE016D
:10069000DF91CF911F910F910895CF93DF93FC01CC
:1006A00021892223C9F0EC018091110180FF08C04B
:1006B00080911301808F86898093130181E0878B5D
:1006C000EC85FD85858185FD03C0848186FD04C0A0
:1006D000CE010E94D202F4CFDF91CF910895CF9343
:1006E000DF9390E0FC01E153F14920812F3F71F04D
:1006F000FC01EB54F149A08130E2A39FD001112409
:10070000BC5F6130710529F411962C93DF91CF9174
:10071000089585569149EC01E881EF3F89F0CD01BC
:100720004096E80FF92FF11D9FB7F89412962C937D
:1007300080816230710539F4886080839FBFE6CF85
:10074000F0E0E0E0F1CF877FF8CF282F30E0F9012B
:10075000EF57F149E081EE2309F1E13021F0F0F0AB
:10076000E63098F008954091010A25563149F90183
:1007700020812C5F81E090E001C0880F2A95EAF784
:10078000809584238093010A089580E1E89FF00119
:100790001124E05AF54F81818F7E81830895FF9265
:1007A0000F931F93CF93DF93082F10E0F801E153CD
:1007B000F149F0809FEFF916A1F0EB018B3210F4B4
:1007C0000E94A503F801EB54F149E08180E2E89F23
:1007D000F0011124FC5F80818F2179F0209739F49A
:1007E000F682DF91CF911F910F91FF90089522978C
:1007F00011F4F782F6CFF582F4CFD801A556B149AE
:100800008C91309771F08F3F61F07096E80FF11D79
:100810009FB7F8948081CD2B39F4877F80839FBF69
:10082000E0CFF0E0E0E0F4CF8860F8CF8B3210F456
:100830000C94CF0308958B3210F40C946F03089539
:10084000CF92DF92EF92FF920F931F93CF93DF939C
:10085000EC016A017B01022F8989882339F0E88144
:10086000F9810288F389E02DCE010995988980915C
:10087000E205892B8093E2051FB7F89460E070E2EF
:1008800081EA97E0A70196010E945B1569017A0150
:100890008FEFC81AD80AE80AF80AF694E794D794B2
:1008A000C794EC85FD8586818D7F8683EC85FD85EB
:1008B00086818683198AA09123110A2E000CBB0B16
:1008C000A70196010E94AD1520E034E040E050E021
:1008D0000E947D15EC85FD85C20ED31EE41EF51E1B
:1008E000C086D186EC85FD850783EC85FD858681F4
:1008F000806C8683EC85FD858581806885838E8507
:1009000062E070E00E941B048F8561E070E00E944D
:1009100016048F8561E070E00E941B041FBFDF9109
:10092000CF911F910F91FF90EF90DF90CF9008959E
:10093000CF93DF938FB7F8942091702A3091712A6A
:100940004091722A5091732AE091BA0A9091B60AA6
:1009500090FF06C02F5F3F4F4F4F5F4FE091BA0AA5
:100960008FBFA0916E2AB0916F2AC0916C2AD0914E
:100970006D2A0E94A215EC9F9001ED9F300D11246D
:10098000620F731F811D911DDF91CF9108958F928A
:100990009F92AF92BF92CF92DF92EF92FF924B0164
:1009A0005C010E9498046B017C01A8EEB3E0A501F4
:1009B00094010E94A215C60ED71EE81EF91EC61687
:1009C000D706E806F90618F40E949804F8CF0E94AA
:1009D00098046C157D058E059F05C8F3FF90EF9078
:1009E000DF90CF90BF90AF909F908F900895AF927F
:1009F000BF92CF92DF92EF92FF920F931F93CF930C
:100A0000DF936C017B018B01040F151FEB015E016D
:100A1000AE18BF08C017D10759F06991D601ED9102
:100A2000FC910190F081E02DC6010995892B79F7A1
:100A3000C501DF91CF911F910F91FF90EF90DF9053
:100A4000CF90BF90AF90089581E00895BC016E5F94
:100A50007F4FDC01ED91FC910190F081E02D40E0B1
:100A6000099591E0811190E0892F08958430F1F08B
:100A700050F4813091F030F1823091F0833099F070
:100A800080EA90E008958630B9F098F08730B9F0A8
:100A90008F3FB1F78EEA90E0089585E791E00895E1
:100AA00081E691E0089587E491E008958BE291E07A
:100AB00008958CEF90E008958AEE90E0089580ED1F
:100AC00090E008958DE891E008950895EF92FF92E7
:100AD0000F931F93CF93DF937C01EB018B01040FE6
:100AE000151FC017D10759F0D701ED91FC91048073
:100AF000F581E02D6881C70109958993F2CFDF91D7
:100B0000CF911F910F91FF90EF9008950F931F9336
:100B1000CF93DF93EC018B018091C008E881F981CC
:100B20000480F581E02D86FD13C0612FCE0109956B
:100B3000182FE881F9810480F581E02D602FCE0126
:100B40000995082FC801DF91CF911F910F9108954A
:100B5000CE010995082FE881F9810480F581E02D07
:100B6000612FCE010995182FEDCF8F929F92AF92F2
:100B7000BF92CF92DF92EF92FF920F931F93CF938A
:100B8000DF93FC018085882319F081FF0EC07894E3
:100B9000DF91CF911F910F91FF90EF90DF90CF9059
:100BA000BF90AF909F908F90089580FFF1CF828487
:100BB0009384A484B584C12CD12C760110E09401D7
:100BC000A501B601C701A0E00E94D21599F12170DC
:100BD00030E040E050E060E070E080E090E00E94B3
:100BE000D215D9F0D0E0C0E0103370F4C12FC69513
:100BF000C695C69580E2C89FE0011124C05FDB4F17
:100C0000812F8770C80FD11DCF01810F911DDC018D
:100C100052968C919881892B88839401A501B60105
:100C2000C70101E00E94B71549015A016B017C011F
:100C30001F5FC5CF86849784A088B188C12CD12C32
:100C4000760110E29401A501B601C701A0E00E945F
:100C5000D21509F49DCF217030E040E050E060E013
:100C600070E080E090E00E94D215D9F0D0E0C0E0C2
:100C7000103370F4C12FC695C695C695B0E2CB9FD0
:100C8000E0011124C05FDB4F812F8770C80FD11D99
:100C9000CF01810F911DDC0152968C919881892B97
:100CA00088839401A501B601C70101E00E94B71530
:100CB00049015A016B017C011F5FC4CFFC016F3FEA
:100CC000710581F1808581FD2DC0603271055CF573
:100CD00081E090E002C0880F991F6A95E2F7809545
:100CE0009095092E000CAA0BBB0B42855385648599
:100CF000758584239523A623B72382879387A487AA
:100D0000B58782859385A485B585892B8A2B8B2B06
:100D100049F486859785A089B189892B8A2B8B2BED
:100D200009F4108608956052710981E090E002C0D4
:100D3000880F991F6A95E2F780959095092E000C0F
:100D4000AA0BBB0B4685578560897189842395233F
:100D5000A623B72386879787A08BB18BD2CFFC01C0
:100D60006F3F7105E9F1603371051CF082E0808707
:100D7000089580858160808760327105C4F481E0C8
:100D800090E002C0880F991F6A95E2F7092E000CC7
:100D9000AA0BBB0B4285538564857585842B952BE7
:100DA000A62BB72B82879387A487B58708956052B7
:100DB000710981E090E002C0880F991F6A95E2F7FF
:100DC000092E000CAA0BBB0B4685578560897189DB
:100DD000842B952BA62BB72B86879787A08BB18B5F
:100DE0000895E0ECF8E020812E7F2083FC0117823B
:100DF0000895E0ECF8E082818E7F82830895E0EC34
:100E0000F8E08281816082830895DC01ED91FC919C
:100E10000088F189E02D23E030E00994FC01019085
:100E20000020E9F73197AF01481B590BBC0184E75B
:100E30009AE20C94F7048BE29FE60C940E07CF9392
:100E4000DF930E943203EC010E941B078C0F9D1F51
:100E5000DF91CF9108958F929F92AF92BF920F939F
:100E60001F93CF93DF93CDB7DEB7A197CDBFDEBF82
:100E700019A2423008F44AE08E010F5D1F4F842E04
:100E8000912CB12CA12CA50194010E945B15E62F99
:100E9000B901CA01EA30DCF4E05DD801EE938D01BE
:100EA000232B242B252B79F790E080E0109719F065
:100EB000CD010E940E07A196CDBFDEBFDF91CF917D
:100EC0001F910F91BF90AF909F908F900895E95C14
:100ED000E4CFCF93DF930E940E07EC010E941B0723
:100EE0008C0F9D1FDF91CF9108950F931F93CF9388
:100EF000C82F09E51BE261E070E0F80182810E94E1
:100F0000160461E070E0F80184810E9416048EE20C
:100F10009FE60E94690770E060E08C2F0E94160433
:100F20006AEF70E080E090E00E94C70461E070E04A
:100F30008C2FCF911F910F910C941604BC01990F27
:100F4000880B990B4AE00C942B070C949516CF92C2
:100F5000DF92EF92FF920F93FC01C12CB9E0DB2EE0
:100F6000BDE3EB2EF12CC082D182E282F3821482A7
:100F7000158281E090E086839783C0900028D0900E
:100F80000128E0900228F0900328F694E794D79483
:100F9000C79490E04C155D056E057F0540F4F6940E
:100FA000E794D794C7949F5F9630A1F797E00460C9
:100FB0000187892F8095A82FA170B0E084E0AA0F47
:100FC000BB1F8A95E1F791629A2B80E0232B09F4ED
:100FD00080E4982B90870F91FF90EF90DF90CF9057
:100FE00008950F931F93CF93DF93CDB7DEB72A9762
:100FF000CDBFDEBF8C01FC01878181110CC0108642
:101000001186128613861486158616861786108A10
:10101000118A81E087838091E305F8019681892B0D
:101020008093E30561E070E083810E941B0461E02E
:1010300070E0F80184810E941B048091C1088460E3
:101040008093C1088091C00881628093C00840915C
:10105000512B5091522B6091532B7091542B009136
:10106000552B2091572B3091582BCE0101960E9481
:10107000A70799858A859093C0088093C1082A960E
:10108000CDBFDEBFDF91CF911F910F9108955F9289
:101090006F927F928F929F92AF92BF92CF92DF9288
:1010A000EF92FF920F931F93CF93DF93CDB7DEB7ED
:1010B0006297CDBFDEBF3C010B871C872D873E8723
:1010C000042F4F87588B698B7A8B29893A894B85F6
:1010D0005C856D857E85CE0101960E94A7075984A7
:1010E0001A85D30118968C91882319F081FF18C0B6
:1010F000F8945092C0081093C1086296CDBFDEBF2D
:10110000DF91CF911F910F91FF90EF90DF90CF90E3
:10111000BF90AF909F908F907F906F905F90089559
:1011200080FFE7CFF30182849384A484B584C12C2B
:10113000D12C7601B0E09401A501B601C701A0E071
:101140000E94D215A9F1217030E040E050E060E04B
:1011500070E080E090E00E94D215E9F090E080E03D
:10116000B03370F48B2F869586958695F0E28F9F2D
:10117000C0011124805F9B4F2B2F2770820F911D80
:10118000FC01408193012B0F311DF901428BFC01C1
:101190002081287F20839401A501B601C70101E0C9
:1011A0000E94B71549015A016B017C01BF5FC3CF93
:1011B000D3011E968D909D90AD90BC905197C12CFF
:1011C000D12C7601B0E29401A501B601C701A0E0DF
:1011D0000E94D21509F48DCF217030E040E050E03C
:1011E00060E070E080E090E00E94D215E9F090E0CD
:1011F00080E0B03370F48B2F869586958695E0E27B
:101200008E9FC0011124805F9B4F2B2F2770820F70
:10121000911DFC01408193012B0F311DF901428B7F
:10122000FC012081287F20839401A501B601C7011C
:1012300001E00E94B71549015A016B017C01BF5FB3
:10124000C2CFBF92CF92DF92EF92FF920F931F9384
:10125000CF93DF93CDB7DEB72897CDBFDEBF6C014C
:10126000E62EB42EF52E80E0082F898389E08A834C
:101270008DE38B831C821D821E8281E0682F8F8309
:10128000188619E02DE330E040E05E8170E08FE0E9
:101290009BE20E94470870E060E0F60186850E94AC
:1012A000160482E10E943C020B2D1F2DE00EF12E50
:1012B000F11C0E151F0531F0F80181918F010E947C
:1012C0003C02F7CF61E070E0F60186850E941604CB
:1012D0008FE09BE22896CDBFDEBFDF91CF911F91BB
:1012E0000F91FF90EF90DF90CF90BF900C94B505D9
:1012F000DF92EF92FF920F931F93CF93DF93CDB7BF
:10130000DEB72897CDBFDEBF7C01D62E80E0082F48
:10131000898389E08A838DE38B831C821D821E82F0
:1013200081E0682F8F83188619E02DE330E040E0DC
:101330005E8170E08FE09BE20E94470870E060E011
:10134000F70186850E9416048D2D80680E943C025C
:1013500080E00E943C02182F61E070E0F701868572
:101360000E9416048FE09BE20E94B505812F28960B
:10137000CDBFDEBFDF91CF911F910F91FF90EF9016
:10138000DF900895CF92DF92EF92FF920F931F9319
:10139000CF93DF93CDB7DEB72897CDBFDEBF7C01FB
:1013A000C62ED42E80E0082F898389E08A838DE3BE
:1013B0008B831C821D821E8281E0682F8F8318869A
:1013C00019E02DE330E040E05E8170E08FE09BE2C9
:1013D0000E94470870E060E0F70186850E941604CD
:1013E0008C2D0E943C028D2D0E943C0261E070E039
:1013F000F70186850E9416048FE09BE22896CDBFF8
:10140000DEBFDF91CF911F910F91FF90EF90DF90A2
:10141000CF900C94B505CF92DF92EF92FF920F938D
:101420001F93CF93DF93EC016B01F42E890140E011
:1014300062E00E94C20944E06AE0CE010E94C20953
:1014400040E864E1CE010E94C209A6016F2DCE01E1
:101450000E94210943E062E0CE010E94C2098FB7D9
:10146000F894C090682AD090692AE0906A2AF09097
:101470006B2A8FBF89E5C80ED11CE11CF11C6AE004
:10148000CE010E94780982FF1BC040E062E0CE01DD
:101490000E94C20964E4CE010E947809F8018083A9
:1014A00062E4CE010E947809F801818380E0DF9137
:1014B000CF911F910F91FF90EF90DF90CF90089503
:1014C0002FB7F8948091682A9091692AA0916A2A8E
:1014D000B0916B2A2FBF8C159D05AE05BF0578F224
:1014E00083E0E5CF2F923F924F925F926F927F926F
:1014F0008F929F92AF92BF92CF92DF92EF92FF9224
:101500000F931F93CF93DF93CDB7DEB72897CDBF4F
:10151000DEBF3C01162F942E290180E0A114B104F6
:1015200011F0F5018081382C329490EF3922380E79
:1015300040E062E0C3010E94C2094FE768E0C301D6
:101540000E94C20940E864E1C3010E94C209A201ED
:10155000602FC3010E942109432D6AE1C3010E944B
:10156000C209412F62E0C3010E94C2091C3051F43C
:101570006AE1C3010E947809482F40686AE1C3010B
:101580000E94C2098FB7F8942090682A3090692A87
:1015900040906A2A50906B2A8FBFF4E22F0E311CC4
:1015A000411C511C68E0C3010E947809982F9921C1
:1015B00009F0DBC080FF17C083E02896CDBFDEBFF7
:1015C000DF91CF911F910F91FF90EF90DF90CF901F
:1015D000BF90AF909F908F907F906F905F904F9053
:1015E0003F902F9008952FB7F8948091682A90919A
:1015F000692AA0916A2AB0916B2A2FBF82159305A0
:10160000A405B50578F2D8CFE114F10409F482C03D
:10161000C114D10409F47EC064E1C3010E947809B9
:10162000382EF6018081831508F499C0308233206A
:1016300009F453C080E0082F898389E08A838DE311
:101640008B831C821D821E8281E0682F8F83188607
:1016500019E02DE330E040E05E8170E08FE09BE236
:101660000E94470870E060E0F30186850E9416043E
:101670003A9482E90E943C02882099F00FEF10E032
:1016800001C0000F8A94EAF782E90E943C02902F81
:101690009095F701208192238023982B90838824B2
:1016A00083942701480C511C831440F482E90E9462
:1016B0003C02F20181932F018394F6CF80E00E94D7
:1016C0003C02F201808361E070E0F30186850E94B4
:1016D00016048FE09BE20E94B50568E1C3010E94F9
:1016E00078098770A114B10411F0F501808393FC8F
:1016F00038C0E114F104B9F1C114D104A1F19D8DF8
:10170000992389F1F6014081413031F4843029F583
:101710008FEF53CF80E0EBCF4230F8F081111DC046
:1017200042509E012F5F3F4FB701C3010E940B0A39
:10173000811143CFF6019081E90EF11CF701329738
:1017400020819981291309C0F1E0EF1AF108F7010E
:1017500020819A81291709F430CF87E02ECF84E0C9
:101760002CCF82E02ACF80E028CF6CE0C3010E941A
:101770007809982E837109F447CF81E01ECF6F92CC
:101780007F928F92AF92BF92CF92DF92EF92FF92B1
:101790000F931F93CF93DF9300D000D0CDB7DEB768
:1017A0003C0180E589831A829E012D5F3F4F42E014
:1017B000BE016F5F7F4FC3010E940B0A182F81117A
:1017C00018C01F92812CB12CA12CD12CC12CF12C32
:1017D000E12C04E09E012F5F3F4F40E36CE0C3012A
:1017E0000E94720A0F90833021F0182F811101C0DE
:1017F00011E0812F2496CDBFDEBFDF91CF911F91E5
:101800000F91FF90EF90DF90CF90BF90AF908F90AF
:101810007F906F9008950F931F93CF93DF938C0168
:10182000D62FC42F0E947809C0954C2F48236D2FC6
:10183000C801DF91CF911F910F910C94C2096F9253
:101840007F928F92AF92BF92CF92DF92EF92FF92F0
:101850000F93CF93DF93CDB7DEB72597CDBFDEBF14
:101860003C0182E08D8340E064E2C3010E94C20932
:1018700040E066E2C3010E94C20946E268E4C30197
:101880000E94C20986E28B838D818230B8F140E8E4
:101890006CE1C3010E940B0C87E08C831F92812CAA
:1018A000CE0104965C0101966C0104977C0101E075
:1018B0009E012D5F3F4F40E36CE0C3010E94720A1E
:1018C000982F0F90811117C08D818230B9F48C81CF
:1018D000811114C081E02596CDBFDEBFDF91CF918D
:1018E0000F91FF90EF90DF90CF90BF90AF908F90CF
:1018F0007F906F90089581E0923069F380E0EBCFA4
:101900002F923F924F925F926F927F928F929F920F
:10191000AF92BF92CF92DF92EF92FF920F931F93FD
:10192000CF93DF93CDB7DEB72E97CDBFDEBF06E0F6
:10193000413508F046C14E873B012C0140E86CE17F
:101940000E940B0C83E989832E85222329F081E0F4
:10195000F3019081953008F480E0992493941C86DB
:101960009C85990F990F990F1E85191B17FD10E083
:1019700032E0882319F098E89B8333E021E0912F2F
:10198000977009F420E0912F959595959595290FDD
:10199000D1F094E0811193E0291708F4922F2C855F
:1019A000E22FF0E03196E60DF71D232F4191A1E0E3
:1019B000B0E0AC0FBD1FA20FB11D4C932F5F422FA3
:1019C000431B491798F38111185F10320CF484C03F
:1019D00080E78A838B819C8189279D8189279E81CD
:1019E00089278F839E01285F3F4F47E0BE016F5FCD
:1019F0007F4FC2010E940B0A082F8111E2C01A8694
:101A000093E09B871D87FE0137961F0109E08A84BA
:101A1000482D4295407F480D6AE1C2010E94C209EB
:101A20001F92CE010A965C01FE013B966F01710187
:101A30009E012F5F3F4F40E36CE0C2010E94720A9B
:101A4000082F0F90823009F065C06CE1C2010E943E
:101A5000780985FDB6C08F7109F480E2282F30E047
:101A6000412F110F550B421753070CF09EC0182F32
:101A7000E22FE595E595E595EF5F922F977081E070
:101A800009F480E0E80F81E090E08C0F9D1F8E0F3D
:101A9000911DFC01215031092770332781E090E02E
:101AA00002C0880F991F2A95E2F79C018081822B42
:101AB00080838BCF85E98983FE85FF2331F081E028
:101AC000F3019081983008F04BCF80E049CF87E94F
:101AD0008983F6E0FC87F9CF912F97709A87812F41
:101AE0008595859585958E5F282F2295207F290FD6
:101AF0002A8301E0911101C000E0080F2224239401
:101B0000312C2C0E3D1E280E311CF9E0F81BFB87F2
:101B10001D877DCF811155C010E29D8590320CF458
:101B200057CF8B81883809F042C083E093E02C8541
:101B3000E22FF0E03196E60DF71D980FA1E0B0E03E
:101B4000AC0FBD1FA80FB11D2C9121938F5F89137E
:101B5000F5CF8B858C87833009F04AC08A85811147
:101B600047C09E012D5F3F4F41E0B101C2010E947D
:101B70000B0A082F811125C09B81F10181819813E7
:101B800039C09C818281981335C0808182FF12C048
:101B90009394F2E09F1609F48DCF23E0921609F496
:101BA00096CF81E0981609F4CDCE05E00AC082E018
:101BB00094E0BDCFF3018387892D880F980E93940D
:101BC0009082802F2E96CDBFDEBFDF91CF911F91E7
:101BD0000F91FF90EF90DF90CF90BF90AF909F90CC
:101BE0008F907F906F905F904F903F902F900895CF
:101BF00001E0E7CF07E0E5CF1F920F920FB60F92FB
:101C000011242F933F934F935F936F937F938F9301
:101C10009F93AF93BF934091682A5091692A609136
:101C20006A2A70916B2A8091662A9091672A209186
:101C3000642A3091652A420F531F611D711D209146
:101C4000622A3091632A820F931F883E23E0920715
:101C500030F0885E93404F5F5F4F6F4F7F4F8093B0
:101C6000662A9093672A4093682A5093692A609362
:101C70006A2A70936B2A8091702A9091712AA091A0
:101C8000722AB091732A0196A11DB11D8093702A0A
:101C90009093712AA093722AB093732A81E0809363
:101CA000B60ABF91AF919F918F917F916F915F9194
:101CB0004F913F912F910F900FBE0F901F9018954D
:101CC0001F920F920FB60F9211242F933F934F93B1
:101CD0005F936F937F938F939F93AF93BF93EF9394
:101CE000FF9384E79AE20E949C02FF91EF91BF91DB
:101CF000AF919F918F917F916F915F914F913F91A4
:101D00002F910F900FBE0F901F9018951F920F925A
:101D10000FB60F9211242F933F934F935F936F93BE
:101D20007F938F939F93AF93BF93EF93FF93E09134
:101D3000802AF091812A818181FD2FC0608180916C
:101D4000862A8F5F8F739091872A891741F0E091DF
:101D5000862AF0E0EC58F54D618F8093862A8091B9
:101D60000D2B90910E2B009739F0DC01ED91FC9139
:101D70000190F081E02D0995FF91EF91BF91AF9116
:101D80009F918F917F916F915F914F913F912F9193
:101D90000F900FBE0F901F9018958081EDCFE4E754
:101DA000FAE21282138288EE93E0A0E0B0E084832E
:101DB0009583A683B7838DEE9EE68083918380E62C
:101DC00098E08487958788E1868789E1878780E422
:101DD000808B128A138A148A158A86E2868B178A68
:101DE000108E10920D2B10920E2BE1E5FBE280E09D
:101DF00099E0ADE3B0E080839183A283B383148242
:101E0000158281E090E086839783EFE0FBE287E034
:101E10009FE680839183178282E086838CE08283B1
:101E20008DE084838BE0838388E08583ECE7FBE2AD
:101E300085E29FE6808391838AE0868789E08787B1
:101E4000A4E7BBE28EE090E08D939C9311978FE026
:101E500090E012968D939C93139780E190E01496F6
:101E60008D939C93159781E190E016968D939C93AA
:101E70001797E093682BF093692BE9E5FBE284E088
:101E800090E08083918382E090E08283938383E07B
:101E900090E08483958385E090E08487958716861B
:101EA0000895CF93DF93CDB7DEB7E397CDBFDEBF05
:101EB00088ED90E084BF9093610080E094E2A4EF0D
:101EC000B0E08093002890930128A0930228B0935B
:101ED00003288091020686608093020680910006A6
:101EE000816080930006809102068F7C80930206B9
:101EF0008091A0008F788093A0008091020680617D
:101F0000809302061092E20581E08093E40583E06D
:101F10008093010A8FEF90E08093260A9093270A1E
:101F200080E890E08093380A9093390A80933A0AC7
:101F300090933B0A80933C0A90933D0A8BE08093F8
:101F4000000A8091E50581608093E5058091E505B3
:101F500082608093E505E0E8FAE037E02FEF90E853
:101F600085E031832487958780837096E03C0AE082
:101F7000F007B9F780E094E080936E2A90936F2A7F
:101F800080916E2A90916F2A2FEF30E0B9010E9464
:101F9000331560936C2A70936D2A80916E2A90910C
:101FA0006F2AE8EEF3E0BF010E9433156093642AC4
:101FB0007093652A80916E2A90916F2ABF010E94CA
:101FC00033158093622A9093632A2093BC0A30933E
:101FD000BD0A8091B50A81608093B50A84E0809340
:101FE000B00A8091B00A81608093B00A789440E88A
:101FF00055E260E070E084E79AE20E94050784E31E
:102000009FE60E9469078FE09BE20E94F10761E072
:1020100070E080918A2B0E941B0461E070E0809147
:102020008A2B0E94160480918B2B8F3F09F438C1B4
:1020300070E060E00E941B0480918B2B8B3208F4CF
:1020400017C161E070E080918B2B0E941B0470E04F
:1020500060E080918B2B0E94160483E090E0019752
:10206000F1F761E070E080918B2B0E94160462E32F
:1020700070E080E090E00E94C70440E064E28CE7FA
:102080009BE20E94C20940E066E28CE79BE20E946C
:10209000C20946E268E48CE79BE20E94C20940E87C
:1020A00064E58CE79BE20E94C20949EA66E58CE799
:1020B0009BE20E94C20943E068E58CE79BE20E9434
:1020C000C20948EE6AE58CE79BE20E94C20940E43F
:1020D0006AE28CE79BE20E94C2094DE362E28CE770
:1020E0009BE20E94C20968E28CE79BE20E947809A9
:1020F000982F9370933039F0482F436068E28CE753
:102100009BE20E94C2098EE39FE60E94690761E09C
:1021100070E087E00E946F0361E070E08091742BB3
:102120000E941B0470E060E08091742B0E941604F2
:1021300061E070E08091762B0E941B0464E670E001
:102140008091762B0E94160461E070E08091782BDC
:102150000E941B0464E670E08091782B0E941604B4
:1021600061E070E080917A2B0E941B0464E670E0CD
:1021700080917A2B0E94160461E070E08091592BC7
:102180000E941B0461E070E08091592B0E941604AC
:1021900061E070E080915B2B0E941B0461E070E0C5
:1021A00080915B2B0E94160461E070E080915D2BB2
:1021B0000E941B0461E070E080915D2B0E94160478
:1021C00061E070E08091652B0E941B0461E070E08B
:1021D0008091652B0E94160488E49FE60E9469079F
:1021E000CE0185968CA79DA78091672B811109C090
:1021F00081E08093672B8091592B90915A2B0E94FC
:1022000075078091682B9091692BDC01ED91FC9111
:102210000280F381E02D0995882311F18FE69FE676
:102220000E9469078091682B9091692BDC01ED91E8
:10223000FC910480F581E02D0995582E882381F0CA
:102240008091682B9091692BFC0133960D96AAE63C
:10225000BBE231912D913213A1C38E179F07C9F7AD
:1022600080E090E0892B09F4BFCF0E940000BCCF32
:10227000E82EF12CF701E153F14910811F3F09F4D9
:10228000E0CE0E94A503F701EB54F149E08120E282
:10229000E29FF0011124FC5F8085182309F4D1CE60
:1022A0004FE062E08CE79BE20E94C20913E062E328
:1022B00070E080E090E00E94C70462E08CE79BE25F
:1022C0000E94780984FFD9CE115089F7D6CE84EACE
:1022D00092E08FC30E941B0789E992E00E943203BB
:1022E000D3011D968C91803120F487E992E00E9401
:1022F0003203F301658570E090E080E040E10E94E8
:102300002B070E941B07D3011D96EC91EF7710E07D
:10231000E13420F4F0E0E05CF14910818BE892E0D8
:102320000E94320382E192E01530A9F0A0F58FE31C
:1023300092E0123081F038F487E692E0113059F0E3
:1023400086E991E008C088E292E0133021F08DE147
:1023500092E01430A9F70E941F07D3011D96EC915B
:10236000EF77E13408F0D9C0F0E0E05CF14990810A
:10237000EFEFE90FE93008F0D0C0F0E0EE53FE4E89
:102380000C949C15CB14CB14E211E211E211411410
:10239000CB14CB14CB1485ED91E01830E1F248F466
:1023A00080EF91E01630B9F284EE91E0173099F2A7
:1023B000C7CF86EC91E0193071F283EA91E01F3FBC
:1023C00051F2BECF8FEF8F8F88A389A38AA38BA3EF
:1023D0008CA310E1943021F015E0953009F418E257
:1023E00080E593E00E941F07115010320CF0FEC0F0
:1023F000312E330C330CB4E0BFA79FA49A94252C44
:10240000412C812F012E000C990BAA0BBB0B88AB22
:1024100099ABAAABBBAB992D930D9EA78DE393E02F
:10242000222089F08CE493E01A3014F089E493E0E0
:102430000E9432034AE068A979A98AA99BA90E944F
:102440002B0785E493E00E943203AEA589E393E075
:10245000AA3038F0BEA586E393E0B43610F084E3EA
:1024600093E00E943203EEA56E2F70E090E080E0D2
:102470004AE00E942B0781E393E00E94320322206E
:1024800009F4BDC0F0E6FB8B3C8AFE017F96DE01BD
:10249000559681918D932CA53DA52E173F07C9F721
:1024A000DE015B9690E080E0F30142819301280F0A
:1024B000391FF901E40FF11D319720812D93019609
:1024C0008430910589F71F92812CB12CA12CD12C3D
:1024D000C12CF12CE12C0CE09E012D5E3F4F40E120
:1024E0006EE0C3010E94720A082F0F90882309F43E
:1024F00086C085E193E00E943203802F0E9436055A
:102500000E941F07115017FF70CFC3010E94BF0B1D
:1025100048E060E1C3010E940B0C0E941B07C3014D
:102520000E94BF0B8CE79FE60E940E0784E7E82E0F
:102530008BE2F82E0AE61BE28EE79FE60E940E076A
:10254000D8016D918D0170E090E080E040E10E9443
:102550002B0781E89FE60E940E07E016F10661F75F
:1025600084E89FE60E946907E4E0F8E22CE53AE29D
:10257000CF010A96AAE6BBE251914D91541345C290
:102580008E179F07C9F786E89FE60E9469076FEFDD
:1025900070E08EE00E9416048091672B882341F042
:1025A0001092672B8091592B90915A2B0E9475079E
:1025B00080915B2B90915C2B0E94750760EC7DE510
:1025C00080E090E00E94C70470E060E08EE00E942E
:1025D000CF038091652B9091662B0E9475076CE765
:1025E00075E180E090E00E94C7043ACE88E0810F58
:1025F000382E329450EF3522E0E1EFA7FECEF2E123
:10260000F9A700E309832EA52A839E012D5F3F4F82
:1026100042E0BE016F5F7F4FC3010E940B0A082F8B
:10262000811116C031E03F93812CB12CA12CCE0139
:1026300089966C01DE0111967D0104E09D0140E365
:102640006CE0C3010E94720A082F0F90882371F07A
:102650008EEF92E00E943203802F0E9436050E9486
:102660001F079A943FEF9312D6CE4CCFFE013196BE
:102670007F0100E0D7018D917D01803108F0C6C057
:102680008BEF92E00E943203F7013197608170E096
:1026900090E080E040E10E942B07802F8370833020
:1026A00021F487EF92E00E9432030F5F003111F7AF
:1026B000222009F46BC0F8848F2D90E0FC0124E007
:1026C000F595E7952A95E1F72985B22FBF70DB2EA6
:1026D00030E0D90144E0B595A7954A95E1F77F81AF
:1026E0004D2D50E0672F60956F706E171F06A9F48F
:1026F000672F70E004E0759567950A95E1F70FE0A4
:1027000060274617570749F47F2D70957F70222464
:1027100023947A171B0609F4212CBF01660F771F3B
:10272000660F771F64707A01EE0CFF1C7E2D7270AD
:10273000672BA1706A2B6DA325FB662760F90D2D11
:102740000270602BDF01AA0FBB1FA4706A2B6EA35F
:1027500026FB662760F9E470E62BBA01759567954C
:102760006270E62BEFA3A5E095958795AA95E1F712
:102770008470220F232F221F330B822B55954795F0
:10278000559547954270842B88A7422C2FA524305D
:1027900009F43FC0892D65E00E942515833009F4B6
:1027A0006EC0082F282F880F330B892D092C000CA1
:1027B000990B019665E070E00E94471526173707D0
:1027C00049F5E5E2F0E0EC0FFD1FE00FF11D80811F
:1027D000813019F0863009F04EC0C980DA80EB8074
:1027E000FC808BEB92E00E94320340E1C701B6010E
:1027F0000E942B0783EB92E00E9432036D8570E00C
:1028000090E080E040E10E942B0735C089EF92E024
:1028100039CF092D83EF92E00E943203E5E2F0E028
:10282000EC0FFD1FE00FF11DF080F2FA882780F910
:1028300090E00E949E0781EF92E00E943203F1FA3D
:10284000882780F990E00E949E078FEE92E00E9418
:1028500032038F2D817090E00E949E078BEE92E0F4
:102860000E943203442021F085EC92E00E94320362
:10287000033009F0A6CF0E941B07212CF2CE03E003
:10288000C9CF81EC93E00E941F07212C312C21013C
:10289000CE0141968AA79BA792E19B8BA0E3A983D7
:1028A0002A829E012D5F3F4F42E0BE016F5F7F4F46
:1028B000C3010E940B0A182F811116C0B1E0BF930B
:1028C000812CB12CA12CFE0173966F019E012F5F0C
:1028D0003F4F790104E040E36CE0C3010E94720ABB
:1028E000182F0F90882351F08AEA93E00E94320358
:1028F000812F0E9436050E941F070FCE8E010F5FA9
:102900001F4F5201410139E087EA93E0381510F476
:1029100085EA93E00E9432034AE0C501B4010E94B7
:102920002B0782EA93E00E943203780194E0D92ECB
:10293000D7018D917D01803158F58FE993E00E9498
:102940003203F7013197608170E090E080E040E170
:102950000E942B07DA94D110EBCF0E941B070C5F6B
:102960001F4FBFEF8B1A9B0AAB0ABB0AEAA5FBA558
:102970000E171F0741F6F4E02F0E311C411C511CAD
:1029800000E1201631044104510409F085CFC5CD82
:102990008DE993E0D4CF82ED93E0ADCF8EEA9FE650
:1029A0000E9469078091682B9091692BFC013396F6
:1029B0000D96AAE6BBE221912D93E817F907D9F706
:1029C0006090682B7090692B89EA92E00E94320334
:1029D00010E0F3018281181708F07CCC7301E10E3E
:1029E000F11CD70113968C91803108F070CC86EAE7
:1029F00092E00E943203F701638170E090E080E092
:102A000040E10E942B071F5FE4CFFC012817390724
:102A100009F0AECD86E99FE60E9469078091672B99
:102A2000882341F01092672B8091592B90915A2B5B
:102A30000E94750780915D2B90915E2B0E94750717
:102A400060E777E180E090E0CECD87FB082E062698
:102A500087FD819567FD61950E94DE150EF49195C5
:102A600007FC81950895AA1BBB1B51E107C0AA1F53
:102A7000BB1FA617B70710F0A61BB70B881F991F1F
:102A80005A95A9F780959095BC01CD01089597FBC3
:102A9000072E16F4009407D077FD09D00E94331555
:102AA00007FC05D03EF4909581959F4F0895709551
:102AB00061957F4F0895A1E21A2EAA1BBB1BFD0151
:102AC0000DC0AA1FBB1FEE1FFF1FA217B307E4070D
:102AD000F50720F0A21BB30BE40BF50B661F771F65
:102AE000881F991F1A9469F7609570958095909545
:102AF0009B01AC01BD01CF010895052E97FB1EF48B
:102B000000940E94941557FD07D00E945B1507FCA6
:102B100003D04EF40C949415509540953095219522
:102B20003F4F4F4F5F4F08959095809570956195F9
:102B30007F4F8F4F9F4F0895EE0FFF1F0590F49129
:102B4000E02D09940E94EA15A59F900DB49F900D69
:102B5000A49F800D911D11240895B7FF0C94A21518
:102B60000E94A215821B930B089597FD1094002ECE
:102B7000083098F00850232F342F452F562F672FF9
:102B8000782F892F912DF4CF159497958795779568
:102B9000679557954795379527950A95AAF7112474
:102BA000002D08950024A7FD00942A173005400544
:102BB000500560057005800590050895991B79E022
:102BC00004C0991F961708F0961B881F7A95C9F7BD
:102BD00080950895A29FB001B39FC001A39F700D7F
:102BE000811D1124911DB29F700D811D1124911D15
:102BF00008950F931F93CF93DF938230910510F4C4
:102C000082E090E0E0918E2BF0918F2B30E020E07D
:102C1000B0E0A0E0309799F42115310509F44AC0DD
:102C2000281B390B24303105D8F58A819B81611529
:102C3000710589F1FB0182839383FE0111C04081FC
:102C400051810281138148175907E0F0481759074D
:102C500099F4109761F012960C93129713961C93A7
:102C60003296CF01DF91CF911F910F91089500937C
:102C70008E2B10938F2BF4CF2115310551F0421775
:102C8000530738F0A901DB019A01BD01DF01F8010A
:102C9000C1CFEF01F9CF80938E2B90938F2BCDCFA7
:102CA000FE01E20FF31F8193919322503109288393
:102CB0003983D7CF20918C2B30918D2B232B41F44E
:102CC00020915E2A30915F2A20938C2B30938D2B9C
:102CD00020915C2A30915D2A2115310541F42DB7F0
:102CE0003EB74091602A5091612A241B350BE09138
:102CF0008C2BF0918D2BE217F307A0F42E1B3F0BCA
:102D00002817390778F0AC014E5F5F4F241735075D
:102D100048F04E0F5F1F40938C2B50938D2B819367
:102D200091939FCFF0E0E0E09CCFCF93DF930097AB
:102D3000E9F0FC01329712821382A0918E2BB091A0
:102D40008F2BED0130E020E01097A1F4208131813C
:102D5000820F931F20918C2B30918D2B28173907D0
:102D600009F061C0E0938C2BF0938D2BDF91CF9114
:102D70000895EA01CE17DF07E8F54A815B819E01DD
:102D800041155105B1F7E901EA83FB834991599156
:102D9000C40FD51FEC17FD0761F480819181029665
:102DA000840F951FE90188839983828193818A83A7
:102DB0009B83F0E0E0E012968D919C911397009731
:102DC000B9F52D913C911197CD010296820F931F79
:102DD00020918C2B30918D2B2817390739F630979D
:102DE00051F510928E2B10928F2BA0938C2BB093B9
:102DF0008D2BBCCFC283D38340815181840F951F1B
:102E0000C817D90761F44E5F5F4F88819981480FD9
:102E1000591F408351838A819B818283938321152B
:102E2000310509F0B0CFE0938E2BF0938F2B9ECF1E
:102E3000FD01DC01C0CF12821382D7CFF894FFCFFF
:102E400006090000FF00000004030000000000006D
:102E5000070700000000000005000000000000005F
:102E60000100000000000000000000000000000061
:102E70000000000000000000000000000000000052
:102E80000200000003000102000001010000000038
:102E9000000000000000000000000005040005061E
:102EA0000204010300010001020302010002030405
:102EB00005020305040202000502010500040101E8
:102EC00004040403030303050503030000010120B8
:102ED000100120400410020801020102040804024B
:102EE00001040810200408201000000000E102F78F
:102EF0000446024D03770255026902050720048348
:102F0000022405000000006505A50732028605665B
:102F100005AF065E064708B505FF06F906F107F19D
:102F20000600000000800C1F0C26050D0A00736FC0
:102F3000756E6400626567696E6E696E67007266C1
:102F40006320776F726B7300536574757020636FC5
:102F50006D706C65746521202862757420636865E6
:102F6000636B20666F72206572726F7273290063E3
:102F70006172642070726573656E74007B003078D6
:102F8000002C20007D005363616E6E656420666CCA
:102F90006F77657221005363616E6E656420736F95
:102FA0006D657468696E6720656C736521006E6578
:0C2FB00077206361726420726561640028
:102FBC000024F4006327C62F396C8000000004DE67
:102FCC00B606196C800000000477423A067C70004B
:102FDC00000004641C06196C800000000439E9042C
:102FEC00196C80000000043D1C05396C8000000049
:102FFC00045DB205396C8000000004343D05396C69
:10300C008000000004EF088D780000000000043FF1
:10301C00018D78000000000004A1098D78000000EB
:10302C00000004D4008D7800000000000448018DDD
:10303C007800000000000408F98C78000000000003
:10304C0004DB008D780000000000046B098D780013
:10305C0000000000049F008D780000000000040BAD
:10306C00098D7800000000000486098D78000000AE
:10307C0000000401F98C78000000000004A5F88C15
:10308C0078000000000004B7098D780000000000F3
:10309C000427108D78000000000004F3008D7800E8
:1030AC000000000004BDF88C780000000000044211
:1030BC00098D78000000000004E4F88C7800000012
:1030CC00000004FAF88C78000000000004CE008D9B
:1030DC007800000000000488008D780000000000DB
:1030EC0004FFF88C7800000000000426098D78009D
:1030FC000000000004D1F88C78000000000004E50A
:10310C00F88C780000000000046B238D7800000020
:10311C00000004AA238D780000000000048A238D8F
:10312C0078000000000004C9238D78000000000026
:10313C0004695E05396C800000000414D706196C14
:10314C00800000000407B905396C800000000430D1
:10315C002300196C8000000004292602196C8000E1
:10316C000000048C3802196C8000000004615702C6
:10317C00196C8000000004247802196C8000000097
:10318C00046D0F03196C80000000047742248E0735
:10319C00C0000000047742E2CB03C00000000477BB
:1031AC0042CBDD02C000000004430606196C80000F
:1031BC00000004B41F05396C800000000430670067
:1031CC00196C8000000004BE7805396C800000008A
:1031DC0004152D02196C8000000004658406396CFE
:1031EC008100000004E34105396C800000000409F3
:1031FC000406396C80000000044DA104196C800099
:10320C000000044E1C05396C800000000000902B5F
:02321C00800030
:00000001FF
